:1000000023C032C031C030C02FC0C2C02DC02CC0F0
:100010002BC02AC029C028C027C026C025C0000088
:100020000000370000000000380002020202020255
:10003000020202020102040810202004100801023A
:10004000000004000000000011241FBECFE5D2E034
:10005000DEBFCDBF20E0A0E6B0E001C01D92A93612
:10006000B207E1F7DFD02AC1CBCFEFE3F0E0249174
:10007000E5E3F0E09491EBE2F0E0E491EE2349F166
:10008000222399F0223071F028F4213071F42AB53E
:100090002F770AC0233011F0243039F42CB52F7D8E
:1000A0002CBD03C02AB52F7D2ABDF0E0EE0FFF1F47
:1000B000EC5DFF4FA591B4912FB7F894811105C065
:1000C0008C91E92FE095E82302C0EC91E92BEC93A9
:1000D0002FBF08953FB7F894809165009091660016
:1000E000A0916700B091680022B708B601FE05C074
:1000F0002F3F19F00196A11DB11D3FBFBA2FA92FA7
:10010000982F8827820F911DA11DB11DBC01CD0123
:1001100043E0660F771F881F991F4A95D1F708950E
:100120008F929F92AF92BF92CF92DF92EF92FF9207
:100130006B017C01CFDF4B015C01C114D104E104F0
:10014000F104E9F0C7DFDC01CB0188199909AA099C
:10015000BB09883E9340A105B10578F321E0C21A9E
:10016000D108E108F10888EE880E83E0981EA11CF2
:10017000B11CC114D104E104F10421F7DECFFF90DA
:10018000EF90DF90CF90BF90AF909F908F900895A9
:100190001F920F920FB60F9211242F933F938F93BC
:1001A0009F93AF93BF938091610090916200A09163
:1001B0006300B09164003091600026E0230F2D377A
:1001C00020F40296A11DB11D05C029E8230F039656
:1001D000A11DB11D20936000809361009093620087
:1001E000A0936300B09364008091650090916600D5
:1001F000A0916700B09168000196A11DB11D809388
:10020000650090936600A0936700B0936800BF916B
:10021000AF919F918F913F912F910F900FBE0F90B3
:100220001F90189578948AB582608ABD8AB58160DE
:100230008ABD83B7826083BF83B7816083BF89B77C
:10024000826089BF80B7826080BF80B7816080BFD5
:10025000329A319A3098379A8CB580648CBDE5E338
:10026000F0E02491EBE2F0E08491882399F090E0B3
:10027000880F991FFC01E25EFF4FA591B491FC012C
:10028000EC5DFF4F859194918FB7F894EC91E22B40
:10029000EC938FBFC0E0D0E081E0E7DE64E670E081
:1002A00080E090E03DDF80E0E0DE68EE73E080E03B
:1002B00090E036DF209781F3A3DEEECFF894FFCFF6
:00000001FF
