:100000001DC02CC02BC02AC029C081C027C026C05B
:1000100025C024C023C022C021C020C01FC00102AF
:100020000000040001020408102002020202020281
:1000300000000000380000000000370011241FBE3F
:10004000CFE5D2E0DEBFCDBF20E0A0E6B0E001C04A
:100050001D92AF36B207E1F757D15CC1D1CF61E055
:1000600081E0E2C0CF92DF92EF92FF920F931F9355
:1000700098D0009160001091610020916200309151
:1000800063006B017C01C01AD10AE20AF30A9701EE
:100090008601023311052105310518F160936000D6
:1000A000709361008093620090936300809164007C
:1000B00090916500892B39F481E090E09093650080
:1000C0008093640004C010926500109264006091F7
:1000D000640081E01F910F91FF90EF90DF90CF902F
:1000E000DCC01F910F91FF90EF90DF90CF900895AB
:1000F00080B7807F80BF80B7806880BF8CB5806408
:100100008CBD8FEF8DBD80B7876080BF08951F9233
:100110000F920FB60F9211242F933F938F939F93BB
:10012000AF93BF938091670090916800A0916900A0
:10013000B0916A003091660023E0230F2D3730F034
:1001400026E8230F0296A11DB11D03C00196A11D33
:10015000B11D209366008093670090936800A09380
:100160006900B0936A0080916B0090916C00A0913F
:100170006D00B0916E000196A11DB11D80936B00C2
:1001800090936C00A0936D00B0936E00BF91AF91FF
:100190009F918F913F912F910F900FBE0F901F90C5
:1001A00018952FB7F894609167007091680080915E
:1001B000690090916A002FBF08958AB582608ABD58
:1001C0008AB581608ABD83B7887F836083BF789456
:1001D00089B7826089BF8CDF86B1876886B9379A14
:1001E0000895813031F48AB58F778ABD8AB58F7BC7
:1001F00007C0823039F48AB58F7D8ABD8AB58F7E7B
:100200008ABD0895833039F480B78F7D80BF80B771
:100210008F7E80BF0895843031F48CB58F7D8CBD86
:100220008CB58F7E8CBD0895CF93DF9390E0FC0159
:10023000EC5DFF4F2491FC01E65DFF4F8491882324
:1002400049F190E0880F991FFC01EA5CFF4FA591EE
:10025000B491805D9F4FFC01C591D4919FB761110E
:1002600008C0F8948C91209582238C9388818223F6
:100270000AC0623051F4F8948C91322F3095832368
:100280008C938881822B888304C0F8948C91822B74
:100290008C939FBFDF91CF9108950F931F93CF93BE
:1002A000DF931F92CDB7DEB7282F30E0F901E25E71
:1002B000FF4F8491F901EC5DFF4F1491F901E65D68
:1002C000FF4F04910023D1F0882319F0698389DF5F
:1002D0006981E02FF0E0EE0FFF1FE05DFF4FA59179
:1002E000B4919FB7611105C0F8948C91109581234A
:1002F00003C0F8948C91812B8C939FBF0F90DF915A
:10030000CF911F910F91089581B781BF56DFA7DE6E
:08031000A9DEFECFF894FFCF37
:00000001FF
