:1016C0001FC043C042C041C040C03FC03EC03DC03B
:1016D0003CC03BC03AC039C038C037C036C0010238
:1016E00000000400010204081020020202020202AB
:1016F000000000003800000000003700160D1B0D30
:1017000011241FBECFE5D2E0DEBFCDBF10E0A0E6C2
:10171000B0E0EEECFFE102C005900D92A238B107F7
:10172000D9F721E0A2E8B0E001C01D92A531B207CF
:10173000E1F71BE0CFE7DBE003C02197FE0135D4E2
:10174000CE37D107D1F769D136C4BACF0F931F93E3
:10175000CF93DF9300D000D0CDB7DEB71C821B82C1
:101760001C821B8246B3242F217030E046B3842FA5
:10177000817090E028173907C9F386B3282F2170AC
:1017800012BE40E050E0822F90E026B3622F6170DD
:1017900070E086179707C9F332B712BE86B3282FB9
:1017A00021704830510530F08B819C81830F911D51
:1017B0009C838B834F5F5F4F4031510521F78B81B5
:1017C0009C8163E070E0A2D335E0969587953A95C9
:1017D000E1F79A83898382B749815A8190E084171F
:1017E0009507C8F3822F90E026B3A22FA170B0E036
:1017F0008A179B07A1F426B3022F017010E080170F
:101800009107C9F386B3282F217012BE82B7498190
:101810005A8190E084179507C8F312BEE3CF86B3D0
:10182000817048E254E030E028E090E066B3E62FB3
:10183000E170F0E08E179F07C9F312BE66B36170C6
:1018400082B7A981BA8190E08A179B07C8F386B353
:101850008170A32FB0E0AE57BF4F9C91990F6813D2
:1018600091609C93215011F43F5F28E04150510951
:10187000E1F62091860030E0322F2227809185000A
:10188000280F311D81E02A3A354509F080E00F909C
:101890000F900F900F90DF91CF911F910F910895AE
:1018A000EF92FF92CF93DF93F8947B0123E0FB014B
:1018B00020935700E89507B600FCFDCF20E030E00C
:1018C000A1E0EA01E8814E5F5F4F2196F881CF2FBA
:1018D000D0E0DC2FCC27CE0FD11DF901EE0DFF1D7E
:1018E0000E01A0935700E895112407B600FCFDCF28
:1018F0002E5F3F4F2034310521F725E0FB01209377
:101900005700E89507B600FCFDCFDF91CF91FF901F
:10191000EF90089517BAF89413BEE0E0F0E0099450
:1019200082E083BF4AE050E060E470E088E091E04C
:10193000C6D2C3E02AE0F22E00E117E232E0E32E45
:1019400082B7853698F012BE0150110979F488B338
:101950008E2588BB66E670E088E091E0FFD1FA94BE
:10196000F11002C0C198D6DF00E117E226B38D2F37
:1019700090E020FBCC24C0F8D12C8C159D0519F0EB
:10198000D6B3D170C150C111DBCFC19ADFDE811156
:101990000EC092E082B78536E8F312BE01501109FD
:1019A000C9F788B3892788BB08EE13E0F3CF80918D
:1019B0008200823081F0833069F54AE050E0609126
:1019C000070188E091E08ED26EE670E088E091E059
:1019D000C5D1A0DF1FC0809107018F5F80930701F1
:1019E000C0918400D0E0DC2FCC2780918300C80F09
:1019F000D11D4AE050E0BE0188E091E079D2BE01FD
:101A000096E0660F771F9A95E1F780E090E047E84F
:101A100050E046DF10928200B9CFB99A40E855E213
:101A200060E070E088E091E09ED07ADF40E062E024
:101A300088E091E089C088E091E05EC01F93CF9379
:101A4000DF93DC011A962D913C911B9721153105EE
:101A500039F481E090E013969C938E9312973DC0E9
:101A60001596ED91FC91169714969C911497892FD9
:101A700080951FB71C964C911C9741FB772770F9F6
:101A800041FD6095F8944081772311F0492B01C006
:101A900048234083E9012197F1F748E0508160FF36
:101AA00002C0592B01C058235083E9012197F1F757
:101AB0006695415099F7772321F09081892380839F
:101AC00003C08081982B90831FBF1A968D919C91A3
:101AD0001B970197F1F721E030E0C901DF91CF9129
:101AE0001F91089508958FEF9FEF089580E090E093
:101AF00008958FEF9FEF089508951F93CF93DF937D
:101B0000EC01162F6C856695617081E06827812F46
:101B10009DD061E0812F61D0612F70E0FB01EC511D
:101B2000F94EE491EC83FB01E651F94EE491F0E0CB
:101B3000EE0FFF1FE051F94E859194919E838D83A6
:101B4000DF91CF911F910895FC011382128286E7E5
:101B500090E09183808313861286848540FB81F90F
:101B60008487CF01CACFCF93DF93EC019A01AB01F9
:101B700068E471EF8EE390E0FCD12430310518F079
:101B80002350310902C021E030E03B872A87DF91F2
:101B9000CF910895813031F48AB58F778ABD8AB5A7
:101BA0008F7B07C0823039F48AB58F7D8ABD8AB5B4
:101BB0008F7E8ABD0895833039F480B78F7D80BFD2
:101BC00080B78F7E80BF0895843031F48CB58F7DCF
:101BD0008CBD8CB58F7E8CBD0895CF93DF9390E044
:101BE000FC01EC51F94E2491FC01E651F94E84912F
:101BF000882349F190E0880F991FFC01EA50F94EC3
:101C0000A591B4918051994EFC01C591D4919FB793
:101C1000611108C0F8948C91209582238C9388815F
:101C200082230AC0623051F4F8948C91322F30959F
:101C300083238C938881822B888304C0F8948C91B1
:101C4000822B8C939FBFDF91CF9108950F931F93A9
:101C5000CF93DF931F92CDB7DEB7282F30E0F90185
:101C6000E252F94E8491F901EC51F94E1491F901C7
:101C7000E651F94E04910023D1F0882319F06983CD
:101C800089DF6981E02FF0E0EE0FFF1FE051F94E90
:101C9000A591B4919FB7611105C0F8948C911095EE
:101CA000812303C0F8948C91812B8C939FBF0F905C
:101CB000DF91CF911F910F910895CF92DF92EF9214
:101CC000FF920F931F93CF93DF936C017A01EB0187
:101CD000E60EF71E00E010E0CE15DF0561F0699119
:101CE000D601ED91FC910190F081E02DC60109959E
:101CF000080F191FF1CFC801DF91CF911F910F91EC
:101D0000FF90EF90DF90CF900895DB010D900020C1
:101D1000E9F7AD0141505109461B570BDC01ED912C
:101D2000FC910280F381E02D0994DC01ED91FC919E
:101D30000190F081E02D09940F931F93CF93DF93CF
:101D4000EC016DE0F2DF8C016AE0CE01EEDF800F86
:101D5000911FDF91CF911F910F9108950F931F93C2
:101D6000CF93DF93EC01D1DF8C01CE01E5DF800F53
:101D7000911FDF91CF911F910F9108958F929F92A4
:101D8000AF92BF92CF92DF92EF92FF920F931F9389
:101D9000CF93DF93CDB7DEB7A1970FB6F894DEBF30
:101DA0000FBECDBF7C01C42EE52FCB01D22E19A2D0
:101DB00021E02D1510F02AE0D22E8E010F5D1F4F6D
:101DC0008D2C912CA12CB12C6C2D7E2FA501940172
:101DD000AED08D2D622F91D0C81A8C2D01501109D3
:101DE0008A3014F4805D01C0895CF801808321157C
:101DF00031054105510521F0C22EE32FCA01E4CF80
:101E0000B801C70182DFA1960FB6F894DEBF0FBEFE
:101E1000CDBFDF91CF911F910F91FF90EF90DF9099
:101E2000CF90BF90AF909F908F900895CF92DF9208
:101E3000EF92FF920F931F93CF93DF93EC016A0110
:101E40007B012115310579F4E881F9810190F08158
:101E5000E02D642FDF91CF911F910F91FF90EF90B4
:101E6000DF90CF9009942A30310501F577FF0CC03F
:101E70006DE25BDF8C01F094E094D094C094C11CBF
:101E8000D11CE11CF11C02C000E010E02AE0B70107
:101E9000A601CE0173DF800F911FDF91CF911F91BB
:101EA0000F91FF90EF90DF90CF900895DF91CF9149
:101EB0001F910F91FF90EF90DF90CF905FCF9A012D
:101EC000AB01662757FD6095762FB0CF2115310500
:101ED00041F4DC01ED91FC910190F081E02D642F43
:101EE00009944CCF9A01462F50E060E070E0EECFAD
:101EF0009A01AB0160E070E0E9CF002480FD060E9E
:101F0000660F11F08695D1F7802D0895002455278E
:101F100004C0080E591F880F991F009729F0769565
:101F20006795B8F37105B9F7802D952F0895A1E253
:101F30001A2EAA1BBB1BFD010DC0AA1FBB1FEE1F43
:101F4000FF1FA217B307E407F50720F0A21BB30B8E
:101F5000E40BF50B661F771F881F991F1A9469F70A
:101F600060957095809590959B01AC01BD01CF0166
:101F70000895052E97FB16F400940FD057FD05D059
:101F8000D6DF07FC02D046F408C050954095309546
:101F900021953F4F4F4F5F4F0895909580957095D5
:101FA00061957F4F8F4F9F4F0895EE0FFF1F059054
:101FB000F491E02D09941BE0CFE7DBE003C0FE01C4
:0E1FC000F4DF2196C038D107D1F7F894FFCF97
:101FCE000000150180004249502121212100525567
:101FDE004E00000000001E0D5D0E760D730D790D86
:021FEE00720D72
:04000003000016C023
:00000001FF
