:02000000FFCB34
:101800000EC01DC01CC01BC01AC019C018C017C014
:1018100016C015C014C013C012C011C010C01124CE
:101820001FBECFE5D2E0DEBFCDBF20E0A0E6B0E036
:1018300001C01D92AC3AB207E1F7B4D1D0C1E0CFFC
:10184000CF93DF9300D000D0CDB7DEB71C821B82D0
:101850001C821B8226B3207130E086B3807190E039
:1018600028173907D1F386B3282F207112BE60E004
:1018700070E0822F90E046B3407150E084179507E6
:10188000D1F332B712BE86B3282F207168307105AC
:1018900030F08B819C81830F911D9C838B836F5FC4
:1018A0007F4F6031710529F78B819C8163E070E087
:1018B0007CD135E0969587953A95E1F79A838983AF
:1018C00082B749815A8190E084179507C8F3822F27
:1018D00090E026B3207130E08217930799F426B385
:1018E000207130E082179307D1F386B3282F20713F
:1018F00012BE82B749815A8190E084179507C8F3D8
:1019000012BEE5CF86B3807148E352E070E068E034
:1019100090E026B3207130E082179307D1F312BE16
:1019200026B3207182B7E981FA8190E08E179F0774
:10193000C8F386B38071E72FF0E0EF59FF4F908135
:10194000990F281391609083615011F47F5F68E0D4
:1019500041505109E9F681E00F900F900F900F90E0
:10196000DF91CF910895EF92FF920F931F93CF9342
:10197000DF938B019C01F894DB0183E0F8018093F5
:101980005700E89507B600FCFDCFD091A800F09075
:10199000A90060E070E0C1E0FA01E0804E5F5F4FB7
:1019A000CA010197FC01808190E0982F88278E0D55
:1019B000911D011511052105310561F461157105B0
:1019C00099F48F5F9F4B9093AB008093AA008FEFA9
:1019D0009BEC0AC00F3511052105310529F46C3344
:1019E000710511F48D2F9F2DFB01EA0FFB1F0C01D8
:1019F000C0935700E895112407B600FCFDCFF2E034
:101A00004F0E511C6E5F7F4F6034710509F0C4CFDB
:101A100085E0F80180935700E89507B600FCFDCFFC
:101A2000DF91CF911F910F91FF90EF90089582E089
:101A300083BF089517BAF89413BE80EC97E1AAEA21
:101A4000B0E022E030E071E08E3F47E1940751F4CE
:101A50002115310539F04D915C91119722503109D2
:101A6000129603C0FC01459154916FB7F894FC01A4
:101A70000A0170935700E89511246FBF02968115F3
:101A8000F8E19F0709F7E199FECF8FB7F894E0ECF2
:101A9000F7E193E090935700E89507B600FCFDCF7F
:101AA000E0ECF7E195E090935700E89507B600FC6D
:101AB000FDCF91E190935700E8958FBFE091AA0088
:101AC000F091AB00099482E083BF16B3107103E07C
:101AD0002AE0F22EC0E1D7E232E0E32E82B785366B
:101AE00000F112BE2197E9F488B38E2588BBFA94E1
:101AF000F11015C0C19842E050E06EEF77E18AEA3C
:101B000090E064D08091AA009091AB00892B31F0D5
:101B1000F894E091AA00F091AB0009958BDFC0E149
:101B2000D7E286B3212F30E0807190E02817390783
:101B300019F016B3107101500111D0CFC19A80DE97
:101B400081110DC092E082B78536E8F312BE21976D
:101B5000D1F788B3892788BBC8EED3E0F4CF809152
:101B60006100823021F08330D1F464DF18C06091CD
:101B7000630070E0762F662780916200680F711D08
:101B8000809160008F5F8093600096E0660F771F02
:101B90009A95E1F780E090E048E650E0E4DE1092AC
:101BA0006100CDCFB99ABC988EDF0024552704C0C0
:101BB000080E591F880F991F009729F07695679591
:101BC000B8F37105B9F7802D952F0895FB01DC015D
:101BD00002C005900D9241505040D8F70895F894F6
:021BE000FFCF35
:0400000300001800E1
:00000001FF
