:1000000025C049C048C047C046C054C144C043C0D1
:1000100042C041C040C03FC03EC03DC03CC00000E7
:100020000000370000000000380002020202020255
:10003000020202020102040810202004100801023A
:1000400000000400000000009E02F50211241FBE03
:10005000CFE5D2E0DEBFCDBF20E0A6E6B0E001C034
:100060001D92A738B207E1F710E0A0E6B0E0E6EA9B
:10007000F8E002C005900D92A636B107D9F710E05E
:10008000C5E2D0E003C02197FE01CED2C432D10731
:10009000D1F75AD1FCC3B4CF90E0FC01E25CFF4F32
:1000A0002491FC01EC5CFF4F3491FC01E65DFF4FB5
:1000B000E491EE2321F1222399F0223071F028F40B
:1000C000213071F48AB58F770AC0233011F02430C3
:1000D00039F48CB58F7D8CBD03C08AB58F7D8ABD08
:1000E000F0E0EE0FFF1FEC5DFF4FA591B4918FB7CD
:1000F000F8949C91E32FE095E923EC938FBF08954A
:100100004F925F926F927F928F929F92AF92BF9227
:10011000EF92FF920F931F93CF93DF93EC018A012D
:100120009B01290166247724E42C812E922EA32E94
:10013000BB24F82CA02F40917500442389F0A42FF4
:10014000B0E0842D90E0BD015ED2E92E882D90E0D4
:10015000BD0159D2F92E802F90E0BD0154D2A92FB4
:1001600080917B0090917800E0917600F09177008B
:10017000891307C0CE0163E070E045D2E80FF91F94
:1001800017C0CC0FDD1FCC0FDD1FEC0FFD1F032FA1
:10019000112722273327EF01C80FD11D442331F047
:1001A000642F70E0802F90E02ED201C0902F9883B2
:1001B00080917800EF01C80FD11DE882809179000D
:1001C000EF01C80FD11DF88280917A00E80FF11D70
:1001D000A083DF91CF911F910F91FF90EF90BF907F
:1001E000AF909F908F907F906F905F904F90089509
:1001F000CF93DF9390E0FC01EC5CFF4F2491FC0176
:10020000E65DFF4F8491882361F190E0880F991F8C
:10021000FC01E25EFF4FC591D491FC01EC5DFF4F04
:10022000A591B491611109C09FB7F8948881209578
:1002300082238883EC912E230BC0623061F49FB738
:10024000F8943881822F809583238883EC912E2B1C
:100250002C939FBF06C08FB7F894E8812E2B28837C
:100260008FBFDF91CF9108953FB7F89480916B00D5
:1002700090916C00A0916D00B0916E0022B708B60D
:1002800001FE05C02F3F19F00196A11DB11D3FBF12
:10029000BA2FA92F982F8827820F911DA11DB11D5C
:1002A000BC01CD0142E0660F771F881F991F4A9558
:1002B000D1F708951F920F920FB60F9211242F932A
:1002C0003F938F939F93AF93BF93809167009091DB
:1002D0006800A0916900B0916A003091660023E047
:1002E000230F2D3720F40196A11DB11D05C026E86E
:1002F000230F0296A11DB11D209366008093670015
:1003000090936800A0936900B0936A0080916B009D
:1003100090916C00A0916D00B0916E000196A11DAE
:10032000B11D80936B0090936C00A0936D00B0930F
:100330006E00BF91AF919F918F913F912F910F9040
:100340000FBE0F901F901895CF93DF93CDB7DEB7F8
:1003500027970FB6F894DEBF0FBECDBF78948AB54D
:1003600082608ABD8AB581608ABD83B7826083BF9F
:1003700083B7816083BF89B7826089BF80B782609D
:1003800080BF80B7816080BF329A319A309A379AA5
:100390008CB580648CBD20E030E080E80FB6F89426
:1003A00086BD26BD0FBE8091740087FD05C061E04B
:1003B0001FDF8091740070DE81E080936F0090E019
:1003C000E92E90E0F92E28E0D22E00E010E0809196
:1003D0007000909171000817190730F440E05FE059
:1003E00060E070E0C8018CDE80917600909177002B
:1003F000892B09F467C038DF80907C0090907D00E5
:10040000A0907E00B0907F00DC01CB018819990993
:10041000AA09BB09C297A105B10568F3F8948091B8
:100420007200909173009A838983E0917600F09135
:1004300077009F012F5F3F4F80818F83E091800085
:10044000F0918100908180918200982B9E83908111
:10045000809589238D838D818C83DB825E816D8184
:100460004F818B819C81A981BA81782F792E4D0192
:10047000DF01C401F9015C9347FD752E7A957C92EA
:10048000762E39F0441F00C000006C93000000C0BD
:10049000F2CF78E041916C930000019761F7B0933F
:1004A0008100A09380004F837B837C829A83898321
:1004B0007894DADE60937C0070937D0080937E00F8
:1004C00090937F00D1DE2B013C0184E6882E912C95
:1004D000A12CB12CC9DEDC01CB0184199509A60938
:1004E000B709883E9340A105B10558F091E0891AFB
:1004F0009108A108B108A8EE4A0EA3E05A1E611C9B
:10050000711C81149104A104B10421F78091700041
:10051000909171000817190728F440E050E0BA01E3
:10052000C801EEDD0F5F1F4F0C30110509F04FCFF2
:10053000E114F10409F449CF63DD47CF10926F0055
:100540001092750010927C0010927D0010927E0037
:1005500010927F0081E080937B008093780010925E
:10056000790082E080937A0084E290E090937300B7
:10057000809372005FD0909377008093760000970D
:1005800061F024E2FC0111922A95E9F78CE090E0F9
:10059000909371008093700008C0109273001092C5
:1005A0007200109271001092700081E080937400CC
:1005B00080916F00882329F061E081E019DE81E0FD
:1005C0006BDDEBE2F0E0E491F0E0EE0FFF1FEC5D9D
:1005D000FF4F859194919093810080938000E5E393
:1005E000F0E0E491E093820008958091760090918C
:1005F0007700009709F0B3D08091740087FD02C0A6
:1006000060E0F6CD08950024552704C0080E591F58
:10061000880F991F009729F076956795B8F37105B3
:10062000B9F7802D952F0895EE0FFF1F0590F491D7
:10063000E02D0994CF93DF938230910510F482E08E
:1006400090E0E0918500F091860020E030E0C0E08D
:10065000D0E0309711F14081518148175907C0F01F
:100660004817590761F482819381209719F09B8381
:100670008A832BC0909386008093850026C0211525
:10068000310519F04217530718F49A01BE01DF0132
:10069000EF010280F381E02DDCCF2115310509F156
:1006A000281B390B2430310590F412968D919C91C2
:1006B00013976115710521F0FB019383828304C0B8
:1006C0009093860080938500FD01329644C0FD0121
:1006D000E20FF31F81939193225031092D933C93A4
:1006E0003AC02091830030918400232B41F4209163
:1006F0006200309163003093840020938300209146
:100700006000309161002115310541F42DB73EB7ED
:100710004091640050916500241B350BE0918300EB
:10072000F0918400E217F307A0F42E1B3F0B28176B
:10073000390778F0AC014E5F5F4F2417350748F05A
:100740004E0F5F1F509384004093830081939193D9
:1007500002C0E0E0F0E0CF01DF91CF9108950F9368
:100760001F93CF93DF93009709F48CC0FC0132975D
:1007700013821282009185001091860001151105E7
:1007800081F420813181820F931F20918300309169
:1007900084002817390779F5F0938400E0938300EB
:1007A00071C0D80140E050E0AE17BF0750F4129678
:1007B0002D913C911397AD012115310509F1D90116
:1007C000F3CF9D01DA013383228360817181860F2B
:1007D000971F8217930769F4EC0128813981260F4E
:1007E000371F2E5F3F4F318320838A819B81938304
:1007F0008283452B29F4F0938600E093850042C064
:100800001396FC93EE931297ED01499159919E0135
:10081000240F351FE217F30771F480819181840F53
:10082000951F029611969C938E93828193811396C5
:100830009C938E931297E0E0F0E0D80112968D9190
:100840009C911397009719F0F8018C01F6CF8D91C8
:100850009C9198012E5F3F4F820F931F2091830040
:10086000309184002817390769F4309729F41092E1
:1008700086001092850002C01382128210938400B9
:1008800000938300DF91CF911F910F91089510E0A5
:10089000C5E2D0E003C0FE01C7DE2196C632D10713
:0608A000D1F7F894FFCF30
:0608A60000008700800045
:00000001FF
